:020000040000FA
:0400000007EF00F016
:100008005E82E1ED0EF0E4EF10F0F28EC10E346E78
:100018002F0E356E840E366E56EC11F00001C85165
:10002800C911D8A41AEF00F01CEF00F050EF00F04F
:1000380092510A0DF3CF42F0F4CF43F09351422688
:10004800000E4322F00E42242C6EFD0E43202D6E2E
:1000580095510A0DF3CF42F0F4CF43F09651422662
:10006800000E4322F00E42242E6EFD0E43202F6E0A
:1000780098510A0DF3CF42F0F4CF43F0995142263C
:10008800000E4322F00E4224306EFD0E4320316EE6
:10009800000EC96F010EC86FC40E406E2CC038F038
:1000A8002DC039F0000E3B6E0A0E3A6EAAEC10F025
:1000B8003850300FCFEC13F0C50E406E2CC032F024
:1000C8002DC033F0000E356E0A0E346E8CEC11F034
:1000D8003250300FCFEC13F0C60E406E3A0ECFEC14
:1000E80013F0C70E406E2EC038F02FC039F0000E46
:1000F8003B6E0A0E3A6EAAEC10F03850300FCFEC77
:1001080013F0C80E406E2EC032F02FC033F0000E30
:10011800356E0A0E346E8CEC11F03250300FCFEC85
:1001280013F0C90E406E3A0ECFEC13F0CA0E406EB3
:1001380030C038F031C039F0000E3B6E0A0E3A6E0E
:10014800AAEC10F03850300FCFEC13F0CB0E406E05
:1001580030C032F031C033F0000E356E0A0E346E06
:100168008CEC11F03250300FCFEC13F00B0E281836
:100178002910D8A4C2EF00F0C4EF00F065EF01F039
:10018800104A112AF40E105C010E1158D8A0CFEFB6
:1001980000F0D1EF00F093EF01F02CC038F02DC043
:1001A80039F0000E3B6E0A0E3A6EAAEC10F0385089
:1001B800300F0001926F2CC032F02DC033F0000ECA
:1001C800356E0A0E346E8CEC11F03250300F00018F
:1001D800936F2EC038F02FC039F0000E3B6E0A0E18
:1001E8003A6EAAEC10F03850300F0001956F2EC00F
:1001F80032F02FC033F0000E356E0A0E346E8CECE0
:1002080011F03250300F0001966F30C038F031C015
:1002180039F0000E3B6E0A0E3A6EAAEC10F0385018
:10022800300F0001986F30C032F031C033F0000E4B
:10023800356E0A0E346E8CEC11F03250300F00011E
:10024800996F93C042F00F0E42169239F00B42108C
:10025800336E020EA4EC13F096C042F00F0E421655
:1002680000019539F00B4210336E010EA4EC13F027
:1002780099C042F00F0E421600019839F00B421057
:10028800336E000EA4EC13F0000E0001C96F000ECF
:10029800C86F000E136E000E126E000E116E000E67
:1002A800106E000E0F6E000E0E6EF29E000E326E75
:1002B800010E35EC13F0000E276E010E266EEDEFE1
:1002C80002F010501110D8B46CEF01F06EEF01F08D
:1002D8008FEF01F0F40E105C010E1158D8B077EFD3
:1002E80001F079EF01F08FEF01F013BE87EF01F015
:1002F800135007E1020E125CD8B085EF01F087EFCA
:1003080001F08BEF01F0124A132A8FEF01F0000E73
:10031800136E000E126E000E116E000E106E0C0E93
:1003280028182910D8A49BEF01F09DEF01F0C7EF22
:1003380001F00E4A0F2AF40E0E5C010E0F58D8A0D9
:10034800A8EF01F0AAEF01F02EEF02F0000E000175
:10035800C96F000EC86F000E136E000E126E000EED
:10036800116E000E106E000E0F6E000E0E6EF29ED5
:10037800000E326E010E35EC13F0000E276E020EE1
:10038800266EEDEF02F00E500F10D8B4CEEF01F04C
:10039800D0EF01F02AEF02F0F40E0E5C010E0F58B8
:1003A800D8B0D9EF01F0DBEF01F02AEF02F01250DC
:1003B8001310D8A4E2EF01F0E4EF01F0F5EF01F03B
:1003C800304A312A315009E13C0E305CD8A0EFEFB9
:1003D80001F0F1EF01F0F5EF01F0000E316E000EC3
:1003E800306E12041310D8A4FCEF01F0FEEF01F0F8
:1003F8000FEF02F02E4A2F2A2F5009E13C0E2E5CF7
:10040800D8A009EF02F00BEF02F00FEF02F0000E98
:100418002F6E000E2E6E020E12181310D8A417EFAE
:1004280002F019EF02F02AEF02F02C4A2D2A2D5083
:1004380009E1180E2C5CD8A024EF02F026EF02F098
:100448002AEF02F0000E2D6E000E2C6E000E0F6EBD
:10045800000E0E6E12501310D8A435EF02F037EFCD
:1004680002F06EEF02F02A502B10D8B43EEF02F0E3
:1004780040EF02F062EF02F0CA0E406E30C038F072
:1004880031C039F0000E3B6E0A0E3A6EAAEC10F03D
:100498003850300FCFEC13F0CB0E406E30C032F036
:1004A80031C033F0000E356E0A0E346E8CEC11F04C
:1004B8003250300FCFEC13F0EDEF02F0CA0E406E61
:1004C800200ECFEC13F0CB0E406E200ECFEC13F0C5
:1004D800EDEF02F012041310D8A475EF02F077EFD5
:1004E80002F0AEEF02F02A502B10D8B47EEF02F0E3
:1004F80080EF02F0A2EF02F0C70E406E2EC038F077
:100508002FC039F0000E3B6E0A0E3A6EAAEC10F0BE
:100518003850300FCFEC13F0C80E406E2EC032F0BA
:100528002FC033F0000E356E0A0E346E8CEC11F0CD
:100538003250300FCFEC13F0EDEF02F0C70E406EE3
:10054800200ECFEC13F0C80E406E200ECFEC13F047
:10055800EDEF02F0020E12181310D8A4B6EF02F055
:10056800B8EF02F0EDEF02F02A502B10D8B4BFEF2D
:1005780002F0C1EF02F0E3EF02F0C40E406E2CC0AF
:1005880038F02DC039F0000E3B6E0A0E3A6EAAEC18
:1005980010F03850300FCFEC13F0C50E406E2CC061
:1005A80032F02DC033F0000E356E0A0E346E8CEC2E
:1005B80011F03250300FCFEC13F0EDEF02F0C40E13
:1005C800406E200ECFEC13F0C50E406E200ECFEC1F
:1005D80013F01200175007E1040E165CD8B0F7EFBD
:1005E80002F0F9EF02F003EF03F0650E346E2F0E00
:1005F800356E800E366E56EC11F02AEF03F0175068
:1006080009E1040E165CD8A00CEF03F00EEF03F01E
:100618002AEF03F00001CA51CB11D8A416EF03F05A
:1006280018EF03F022EF03F0000E326E010E35ECE6
:1006380013F0000E0001CB6F010ECA6F0B0E346E63
:100648002F0E356E800E366E56EC11F00B0E2818F4
:100658002910D8B432EF03F034EF03F03EEF03F083
:100668000C0E28182910D8A43CEF03F03EEF03F035
:10067800ABEF03F00B0E28182910D8A446EF03F0AF
:1006880048EF03F068EF03F0010E0001C027000EE9
:10069800C123C223C323C351C2110BE1F40EC05DB1
:1006A800010EC159D8A05BEF03F05DEF03F068EFCE
:1006B80003F0000E0001C06F000EC16F000EC26F84
:1006C800000EC36F79EF04F00C0E28182910D8A477
:1006D80070EF03F072EF03F079EF04F0010E000100
:1006E800BC27000EBD23BE23BF23BF51BE110BE1A3
:1006F800F40EBC5D010EBD59D8A085EF03F087EF5D
:1007080003F079EF04F0000E326E010E35EC13F0B1
:10071800000E0001C06F000EC16F000EC26F000E08
:10072800C36F000EBC6F000EBD6F000EBE6F000ED3
:10073800BF6F000E176E000E166E000E156E000EBF
:10074800146E000E276E020E266E1AEF05F00001D9
:10075800C051C111C211C311D8B4B5EF03F0B7EF3E
:1007680003F006EF04F0C351C21109E1F40EC05DB5
:10077800010EC159D8B0C3EF03F0C5EF03F006EF7F
:1007880004F0175007E1040E165CD8B0CEEF03F062
:10079800D0EF03F0E0EF03F01650D30FD96EDA6A0A
:1007A800300EDF6E1650C00F406E2A0ECFEC13F0DD
:1007B800164A172A5DEF03F0175009E1040E165C7C
:1007C800D8A0E9EF03F0EBEF03F079EF04F0155050
:1007D80007E1040E145CD8B0F4EF03F0F6EF03F071
:1007E80079EF04F01450CE0FD96EDA6A300EDF6E4E
:1007F8001450C00F406E2A0ECFEC13F0144A152A7D
:100808005DEF03F0BC51BD11BE11BF11D8B40FEF9D
:1008180004F011EF04F069EF04F0BF51BE1109E1D3
:10082800F40EBC5D010EBD59D8B01DEF04F01FEFEA
:1008380004F069EF04F0175007E1040E165CD8B015
:1008480028EF04F02AEF04F043EF04F01650D30F1A
:10085800D96EDA6A310EDF6E1650C00F406E2A0E5E
:10086800CFEC13F0164A172A000E0001BC6F000ED9
:10087800BD6F000EBE6F000EBF6F79EF04F017500A
:1008880009E1040E165CD8A04CEF04F04EEF04F01A
:1008980079EF04F0155007E1040E145CD8B057EF57
:1008A80004F059EF04F079EF04F01450CE0FD96E2C
:1008B800DA6A310EDF6E1450C00F406E2A0ECFEC8C
:1008C80013F0144A152A38EF04F0000EC06F000E1A
:1008D800C16F000EC26F000EC36F000EBC6F000E1A
:1008E800BD6F000EBE6F000EBF6F175009E1040EFA
:1008F800165CD8A082EF04F084EF04F01AEF05F03C
:10090800155009E1040E145CD8A08DEF04F08FEFA8
:1009180004F01AEF05F0000E0001D76F000ED26F39
:10092800D30E326ECE0E336EEDEC11F03250331022
:10093800D8A4A1EF04F0A3EF04F0FAEF04F0000E3E
:10094800326E010E35EC13F09B0E326ED30E336E01
:100958007CEC13F09BC033F0650E15EC13F09CC0D3
:1009680033F0660E15EC13F09DC033F0670E15ECEE
:1009780013F09EC033F0680E15EC13F0FA0E346EC7
:100988002E0E356E800E366E56EC11F0270E436E25
:100998000D0E426E260EE82EFED7422EFCD7432EB1
:1009A800FAD700D0000E326E010E35EC13F0000EAF
:1009B8000001C06F000EC16F000EC26F000EC36F42
:1009C800000EBC6F000EBD6F000EBE6F000EBF6F35
:1009D800000E176E000E166E000E156E000E146EC9
:1009E800000ECB6F000ECA6FA5EF03F0000E326E3B
:1009F800010E35EC13F04A0E346E2F0E356E800E54
:100A0800366E56EC11F0270E436E0D0E426E260E12
:100A1800E82EFED7422EFCD7432EFAD700D0000E80
:100A2800326E010E35EC13F0DBEF04F012005B5070
:100A38005C10D8B422EF05F024EF05F013EF07F0AF
:100A48002C0E346E2F0E356E800E366E56EC11F06D
:100A5800000E0101AD6F000EAC6FB9EF06F0ACC12E
:100A680032F0ADC133F0000E356E0A0E346E91ECE3
:100A780013F032C038F033C039F0D5EC12F0ACC105
:100A880032F0ADC133F0000E356E110E346E91ECBC
:100A980013F0000E3224D96E010E3320DA6E0101F4
:100AA800AC51300FDF6EACC132F0ADC133F0000E87
:100AB800356E110E346E91EC13F0010E3226000ED5
:100AC8003322000E3224D96E010E3320DA6E200E46
:100AD800DF6EACC132F0ADC133F0000E356E110ED1
:100AE800346E91EC13F0020E3226000E3322000E03
:100AF8003224D96E010E3320DA6EAEC1DFFFACC1ED
:100B080032F0ADC133F0000E356E110E346E91EC3B
:100B180013F0030E3226000E3322000E3224D96E53
:100B2800010E3320DA6EAFC1DFFFACC132F0ADC1C8
:100B380033F0000E356E110E346E91EC13F0040E86
:100B48003226000E3322000E3224D96E010E3320D5
:100B5800DA6E3A0EDF6EACC132F0ADC133F0000E82
:100B6800356E110E346E91EC13F0050E3226000E20
:100B78003322000E3224D96E010E3320DA6EB0C152
:100B8800DFFFACC132F0ADC133F0000E356E110E8F
:100B9800346E91EC13F0060E3226000E3322000E4E
:100BA8003224D96E010E3320DA6EB1C1DFFFACC139
:100BB80032F0ADC133F0000E356E110E346E91EC8B
:100BC80013F0070E3226000E3322000E3224D96E9F
:100BD800010E3320DA6E3A0EDF6EACC132F0ADC1D1
:100BE80033F0000E356E110E346E91EC13F0080ED2
:100BF8003226000E3322000E3224D96E010E332025
:100C0800DA6EB2C1DFFFACC132F0ADC133F0000E15
:100C1800356E110E346E91EC13F0090E3226000E6B
:100C28003322000E3224D96E010E3320DA6EB3C19E
:100C3800DFFFACC132F0ADC133F0000E356E110EDE
:100C4800346E91EC13F00A0E3226000E3322000E99
:100C58003224D96E010E3320DA6E200EDF6EACC15D
:100C680032F0ADC133F0000E356E110E346E91ECDA
:100C780013F00B0E3226000E3322000E3224D96EEA
:100C8800010E3320DA6EB4C1DFFFACC132F0ADC162
:100C980033F0000E356E110E346E91EC13F00C0E1D
:100CA8003226000E3322000E3224D96E010E332074
:100CB800DA6EB5C1DFFFACC132F0ADC133F0000E62
:100CC800356E110E346E91EC13F00D0E3226000EB7
:100CD8003322000E3224D96E010E3320DA6E200E34
:100CE800DF6EACC132F0ADC133F0000E356E110EBF
:100CF800346E91EC13F00E0E3226000E3322000EE5
:100D08003224D96E010E3320DA6EB6C1DFFFACC1D2
:100D180032F0ADC133F0000E356E110E346E91EC29
:100D280013F00F0E3226000E3322000E3224D96E35
:100D3800010E3320DA6EB7C1DFFFACC132F0ADC1AE
:100D480033F0000E356E110E346E91EC13F0100E68
:100D58003226000E3322000E3224D96E010E3320C3
:100D6800DA6EDF6A0101AC4BAD2BAC515B5CAD5167
:100D78005C58D8B0C2EF06F0C4EF06F033EF05F0C8
:100D8800F1EC13F0F28EC50E386E2E0E396EBEECF5
:100D980011F0000E0101AB6F000EAA6FEFEF06F025
:100DA800AAC132F0ABC133F0000E356E110E346EAD
:100DB80091EC13F0000E3224386E010E3320396E98
:100DC800BEEC11F0D50E386E2E0E396EBEEC11F059
:100DD8000101AA4BAB2B5B50AA5D5C50AB59D8A064
:100DE800F8EF06F0FAEF06F0D4EF06F0270E3D6EA6
:100DF8000D0E3C6E260EE82EFED73C2EFCD73D2E5F
:100E0800FAD700D0000E326E010E35EC13F0F29CCA
:100E1800F29E000E276E020E266E2EEF07F0A30E2E
:100E2800346E2F0E356E800E366E56EC11F0270E8E
:100E38003D6E0D0E3C6E260EE82EFED73C2EFCD7DE
:100E48003D2EFAD700D0000E326E010E35EC13F0AD
:100E58000DEF07F01200F28E000181BF36EF07F0A8
:100E680038EF07F0D9EF07F01FBE46EF07F01F5025
:100E780007E1040E1E5CD8B044EF07F046EF07F018
:100E8800CFEF07F0E90E346E2E0E356E800E366EFB
:100E980056EC11F02050426E2150436E204A212A10
:100EA80043BE62EF07F0435007E1C80E425CD8B07A
:100EB80060EF07F062EF07F06AEF07F01E50C00F0F
:100EC800406E5F0ECFEC13F098EF07F02050426EA3
:100ED8002150436E204A212A43BE7CEF07F043503D
:100EE80009E1C90E425CD8A07CEF07F07EEF07F05D
:100EF80094EF07F021BE8CEF07F0900E205C010EF6
:100F08002158D8B08AEF07F08CEF07F094EF07F07C
:100F18001E50C00F406E200ECFEC13F098EF07F074
:100F2800000E216E000E206E0B0E28182910D8A472
:100F3800A0EF07F0A2EF07F0B7EF07F01E50A00FE1
:100F4800D96EDA6A300EDF6E1E50C00F406E2A0E60
:100F5800CFEC13F01E4A1F2A000E0001816F040E09
:100F6800806F01EF08F00C0E28182910D8A4BFEFE5
:100F780007F0C1EF07F0D7EF07F01E50A00FD96EAA
:100F8800DA6A310EDF6E1E50C00F406E2A0ECFECAB
:100F980013F0AEEF07F0000EA46F000ECD6F010E38
:100FA800CC6F01EF08F001EF08F0000E326E010E71
:100FB80035EC13F0000E276E000E266EF29E000E22
:100FC8000001816F040E806F000E5A6E780E596E04
:100FD800000E586E010E576E000E216E000E206E28
:100FE800000E1F6E000E1E6E000E0001CD6F000E6B
:100FF800CC6F2EEF09F02EEF09F00001CC51CD1186
:10100800D8B409EF08F00BEF08F02EEF09F0F29EC4
:10101800000E816F040E806F000E5A6E780E596EA6
:1010280052EC13F09B0E326EA00E336EEDEC11F005
:1010380032503310D8A423EF08F025EF08F067EFFB
:1010480008F0000E326E010E35EC13F0AD0E346E62
:101058002F0E356E800E366E56EC11F0000E276E90
:10106800020E266EFF0E286E000E296EF29E000EEE
:101078000001816F040E806F000E5A6E780E596E53
:10108800000E586E010E576E000E216E000E206E77
:10109800000E1F6E000E1E6E000ECD6F000ECC6F80
:1010A800270E436E0D0E426E260EE82EFED7422EF8
:1010B800FCD7432EFAD700D0000E326E010E35EC65
:1010C80013F02EEF09F058BE75EF08F0585007E1FD
:1010D800030E575CD8B073EF08F075EF08F0ADEF6A
:1010E80008F0000E326E010E35EC13F03B0E346E34
:1010F8002F0E356E800E366E56EC11F0580E346E8B
:101108002F0E356EC00E366E56EC11F0CD0E406EB9
:1011180057503308CFEC13F0330E436EBB0E426EBC
:10112800E00EE82EFED7422EFCD7432EFAD7000E4B
:10113800326E010E35EC13F0000E1F6E000E1E6E9F
:10114800000E0001CD6F000ECC6F574A582A2EEFC3
:1011580009F058BEB9EF08F0585009E1030E575C82
:10116800D8A0B9EF08F0BBEF08F0FFEF07F0F28E58
:10117800000E326E010E35EC13F08C0E346E2F0E0D
:10118800356E800E366E56EC11F0C20E406E59C0A8
:101198003AF05AC03BF0000E3D6E0A0E3C6EBCECB5
:1011A8000FF03A50300FCFEC13F0C10E406E000E26
:1011B800356E0A0E346E59C032F05AC033F05AEC0C
:1011C8000FF032C03AF033C03BF0000E3D6E0A0E0D
:1011D8003C6EBCEC0FF03A50300FCFEC13F0C00E61
:1011E800406E000E356E640E346E59C032F05AC02F
:1011F80033F05AEC0FF032C03AF033C03BF0000E37
:101208003D6E0A0E3C6EBCEC0FF03A50300FCFEC3E
:1012180013F0DC0E346E2F0E356EC30E366E56ECA0
:1012280011F059505A10D8A41CEF09F01EEF09F01C
:10123800C1EF08F0000E326E010E35EC13F0F29E8D
:10124800000E5A6E780E596E000E276E000E266E2E
:10125800ECEF07F012000B0E28182910D8A437EF6E
:1012680009F039EF09F0A2EF09F0010E0126000E8E
:10127800022203220422045003100BE1F40E015C45
:10128800010E0258D8A04BEF09F04DEF09F003EF1B
:101298000AF0000E326E010E35EC13F0980E346E23
:1012A8002F0E356E800E366E56EC11F01A50020D68
:1012B800F350720FD96EDA6ADECF34F0DDCF35F035
:1012C800C00E366E56EC11F00A0E1A24266E000E69
:1012D8001B20276E000E1D6E000E1C6E000E016E88
:1012E800000E026E000E036E000E046E000E00016A
:1012F800C46F000EC56F000EC66F000EC76F000EDC
:101308001B6E000E1A6E000E196E000E186EFF0E80
:10131800286E000E296E270E436E0D0E426E260EA5
:10132800E82EFED7422EFCD7432EFAD700D0000E67
:10133800326E010E35EC13F0DDEF0AF001500210A9
:1013480003100410D8B4ABEF09F0ADEF09F0FBEFD0
:1013580009F00450031009E1F40E015C010E025873
:10136800D8B0B9EF09F0BBEF09F0FBEF09F01BBEED
:10137800C6EF09F01B5008E11A04D8A0C6EF09F01F
:10138800C8EF09F0FBEF09F01BBED6EF09F01B50C0
:1013980007E1040E1A5CD8B0D4EF09F0D6EF09F0D3
:1013A800EFEF09F01DBEE1EF09F01D5008E11C0444
:1013B800D8A0E1EF09F0E3EF09F0EFEF09F01850DA
:1013C8001910D8A4EAEF09F0ECEF09F0EFEF09F0F3
:1013D8001C06D8A01D061A06D8A01B06000E326EE1
:1013E800010E35EC13F0000E196E000E186E000E8B
:1013F800016E000E026E000E036E000E046E0C0EDF
:1014080028182910D8A40BEF0AF00DEF0AF04AEFBC
:101418000AF0010E0001C427000EC523C623C72306
:10142800C751C6110BE1F40EC45D010EC559D8A011
:1014380020EF0AF022EF0AF0ACEF0AF0000E326E4D
:10144800010E35EC13F0000E1D6E000E1C6E000E22
:10145800016E000E026E000E036E000E046E000E8A
:101468000001C46F000EC56F000EC66F000EC76F77
:10147800000E1B6E000E1A6E000E196E000E186E0E
:10148800000E276E000E266EDDEF0AF00001C45133
:10149800C511C611C711D8B454EF0AF056EF0AF0B7
:1014A800A3EF0AF0C751C61109E1F40EC45D010E9D
:1014B800C559D8B062EF0AF064EF0AF0A3EF0AF05A
:1014C8001BBE72EF0AF01B5007E1040E1A5CD8B07D
:1014D80070EF0AF072EF0AF0A3EF0AF01BBE7DEF7F
:1014E8000AF01B5008E11A04D8A07DEF0AF07FEF3C
:1014F8000AF098EF0AF01DBE8DEF0AF01D5007E1C3
:10150800030E1C5CD8B08BEF0AF08DEF0AF098EF51
:101518000AF018041910D8A494EF0AF096EF0AF00C
:1015280098EF0AF01C4A1D2A1A4A1B2A000E326E2E
:10153800010E35EC13F0000E196E010E186E000E38
:101548000001C46F000EC56F000EC66F000EC76F96
:1015580018501910D8A4B3EF0AF0B5EF0AF0BCEF91
:101568000AF0800E406E2A0ECFEC13F0C1EF0AF09D
:10157800C00E406E2A0ECFEC13F01C50020DF35033
:10158800720FD96EDA6ADECF34F0DDCF35F0810E16
:10159800366E56EC11F01C50020DF350740FD96ED4
:1015A800DA6ADECF34F0DDCF35F0C10E366E56EC98
:1015B80011F012005B505C10D8B4E5EF0AF0E7EFC9
:1015C8000AF00EEF0CF000017C517D11D8B4EFEF5A
:1015D8000AF0F1EF0AF005EF0BF0000E7D6F000E38
:1015E8007C6F08C032F009C033F0000E356E0A0E69
:1015F800346E91EC13F032C038F033C039F0D5ECCA
:1016080012F0D80E346E2E0E356E800E366E56ECF5
:1016180011F00B0E28182910D8B415EF0BF017EF9E
:101628000BF021EF0BF00C0E28182910D8A41FEF8F
:101638000BF021EF0BF06CEF0BF00B0E28182910B4
:10164800D8A429EF0BF02BEF0BF03EEF0BF00C4A70
:101658000D2AF40E0C5C010E0D58D8A036EF0BF0D5
:1016680038EF0BF03EEF0BF0000E0D6E000E0C6E17
:10167800E2EF0BF00C0E28182910D8A446EF0BF057
:1016880048EF0BF0E2EF0BF00A4A0B2AF40E0A5C63
:10169800010E0B58D8A053EF0BF055EF0BF0E2EF0B
:1016A8000BF0000E326E010E35EC13F0000E0D6ECD
:1016B800000E0C6E000E0B6E000E0A6E000E096E08
:1016C800000E086E000E276E020E266E29EF0CF033
:1016D8000C500D10D8B473EF0BF075EF0BF09FEFB3
:1016E8000BF0F40E0C5C010E0D58D8B07EEF0BF029
:1016F80080EF0BF09FEF0BF05B50085C5C500958D3
:10170800D8B089EF0BF08BEF0BF038EF0BF0084AED
:10171800092A08C032F009C033F0000E356E0A0EEF
:10172800346E91EC13F032C038F033C039F0D5EC98
:1017380012F038EF0BF00A500B10D8B4A6EF0BF0EC
:10174800A8EF0BF0DAEF0BF0F40E0A5C010E0B5861
:10175800D8B0B1EF0BF0B3EF0BF0DAEF0BF00850A5
:101768000910D8B4BAEF0BF0BCEF0BF0D4EF0BF0C4
:101778000806D8A00906000E00017D6F010E7C6FD7
:1017880008C032F009C033F0000E356E0A0E346E10
:1017980091EC13F032C038F033C039F0D5EC12F0C8
:1017A800000E0B6E000E0A6EE2EF0BF0000E0D6ECF
:1017B800000E0C6E000E0B6E000E0A6E0850300FF5
:1017C8003E6E200E3F6EAEC140F0AFC141F03A0E02
:1017D800426EB0C143F0B1C144F03A0E456EB2C199
:1017E80046F0B3C147F0200E486EB4C149F0B5C108
:1017F8004AF0200E4B6EB6C14CF0B7C14DF0000E4A
:101808004E6E3E0E346E356AC00E366E56EC11F0D2
:1018180029EF0CF0A30E346E2F0E356E800E366E47
:1018280056EC11F0270E3D6E0D0E3C6E260EE82E7E
:10183800FED73C2EFCD73D2EFAD700D0000E326ED4
:10184800010E35EC13F066EF0BF01200040EF5EC08
:1018580012F032C038F033C039F0000E3B6E0A0E79
:101868003A6EAAEC10F038C053F039C054F0820E2A
:10187800346E356A800E366E56EC11F068EC10F056
:10188800920E346E356AC00E366E56EC11F028048E
:101898002910D8A452EF0CF054EF0CF07CEF0CF0A8
:1018A800080E24182510D8B45CEF0CF05EEF0CF08D
:1018B80078EF0CF025BE6CEF0CF0255007E1070E11
:1018C800245CD8B06AEF0CF06CEF0CF07CEF0CF0F5
:1018D800244A252A5B4A5C2A53C040F054C041F090
:1018E80060EC0EF07CEF0CF0000E256E010E246EFD
:1018F800020E28182910D8A484EF0CF086EF0CF0FB
:10190800ADEF0CF0080E24182510D8B48EEF0CF0AB
:1019180090EF0CF0A9EF0CF025BE9CEF0CF02550D1
:1019280009E1020E245CD8A09CEF0CF09EEF0CF0AD
:10193800ADEF0CF02406D8A0250653C040F054C0E3
:1019480041F060EC0EF0ADEF0CF0000E256E010ECC
:10195800246E030E28182910D8A4B5EF0CF0B7EFA1
:101968000CF0C3EF0CF0000E256E080E246E5B4AD7
:101978005C2A53C040F054C041F060EC0EF00B0EEE
:1019880028182910D8B4CBEF0CF0CDEF0CF0D7EF16
:101998000CF00C0E28182910D8A4D5EF0CF0D7EFAE
:1019A8000CF0F6EF0CF0000E326E010E35EC13F071
:1019B800030E526EE80E516E5106D8A052065150D1
:1019C8005210D8A4EAEF0CF0ECEF0CF0E0EF0CF0BA
:1019D800000E276E010E266EFF0E286E000E296E71
:1019E80056EF0DF02450020DF350600FD96EDA6AED
:1019F800DECF34F0DDCF35F0CA0E366E56EC11F07E
:101A0800545009E1640E535CD8A00DEF0DF00FEFB0
:101A18000DF013EF0DF0000E546E630E536ECD0EE5
:101A2800406E53C038F054C039F0000E3B6E0A0EB9
:101A38003A6EAAEC10F03850300FCFEC13F0CE0EFF
:101A4800406E53C032F054C033F0000E356E0A0EAB
:101A5800346E8CEC11F03250300FCFEC13F00001E3
:101A68007E517F11D8B43BEF0DF03DEF0DF048EFFC
:101A78000DF053C040F054C041F060EC0EF0000E81
:101A880000017F6F000E7E6F0A0E5B185C10D8A4F1
:101A980050EF0DF052EF0DF056EF0DF0000E5C6EAA
:101AA800090E5B6E12006CEC12F027BE65EF0DF0AC
:101AB800275009E1020E265CD8A065EF0DF067EF0C
:101AC8000DF072EF0DF0000E1DEC11F0556E566A18
:101AD80055C028F056C029F07BEF0DF0010E1DEC23
:101AE80011F0556E566A55C028F056C029F0265098
:101AF8002710D8A482EF0DF084EF0DF086EF0DF0DB
:101B08002AEC0CF026042710D8A48DEF0DF08FEFE7
:101B18000DF091EF0DF02FEC07F0020E26182710AC
:101B2800D8A499EF0DF09BEF0DF09DEF0DF02FEC81
:101B380009F00A0E26182710D8A4A5EF0DF0A7EF74
:101B48000DF0A9EF0DF0DEEC0AF00B0E26182710A9
:101B5800D8A4B1EF0DF0B3EF0DF0B5EF0DF009EC2F
:101B680000F00C0E26182710D8A4BDEF0DF0BFEF1B
:101B78000DF0C1EF0DF01BEC05F00D0E2618271027
:101B8800D8A4C9EF0DF0CBEF0DF0CDEF0DF01CECA4
:101B980012F00E0E26182710D8A4D5EF0DF0D7EFA7
:101BA8000DF059EF0DF0EEEC02F059EF0DF007EFE4
:101BB80000F0819A818E818C81B2E5EF0DF0E7EF1C
:101BC8000DF0EAEF0DF0010E5FEF0EF081B4EFEFCC
:101BD8000DF0F1EF0DF0F4EF0DF0040E5FEF0EF0E5
:101BE80081B6F9EF0DF0FBEF0DF0FEEF0DF0070EEB
:101BF8005FEF0EF081B803EF0EF005EF0EF008EF7F
:101C08000EF00A0E5FEF0EF0819C818E818A81B200
:101C180010EF0EF012EF0EF015EF0EF0020E5FEF60
:101C28000EF081B41AEF0EF01CEF0EF01FEF0EF05D
:101C3800050E5FEF0EF081B624EF0EF026EF0EF0E2
:101C480029EF0EF0080E5FEF0EF081B82EEF0EF0C0
:101C580030EF0EF033EF0EF00B0E5FEF0EF0819EBB
:101C6800818C818A81B23BEF0EF03DEF0EF040EFA0
:101C78000EF0030E5FEF0EF081B445EF0EF047EF64
:101C88000EF04AEF0EF0060E5FEF0EF081B64FEF42
:101C98000EF051EF0EF054EF0EF0090E5FEF0EF05C
:101CA80081B859EF0EF05BEF0EF05EEF0EF00C0E00
:101CB8005FEF0EF0FF0E120020EE44F00A0EDE6A0F
:101CC800E806FDE292C044F093C045F095C046F0A6
:101CD80096C047F098C048F099C049F02450020DCA
:101CE800F350600FD96EDA6ADECFF6FFDDCFF7FF6B
:101CF8000800F5CF4AF02450020DF350600FD96E5A
:101D0800DA6ADECF42F0DDCF43F0010E4226000E44
:101D1800432242C0F6FF43C0F7FF0800F5CF4BF05F
:101D280040C032F041C033F0000E356E0A0E346EFA
:101D38005AEC0FF03250300F4C6E40C03AF041C0B0
:101D48003BF0000E3D6E0A0E3C6EBCEC0FF03A50B4
:101D5800300F4D6E000E506E000E4F6E4F50440FF8
:101D6800D96EDA6ADF50336E4F50222415EC13F027
:101D78004F4A502A50BECAEF0EF0505009E10A0EE1
:101D88004F5CD8A0CAEF0EF0CCEF0EF0B2EF0EF019
:101D98000A0E2224226E000E2320236E640E2218BF
:101DA8002310D8A4DAEF0EF0DCEF0EF0E0EF0EF01F
:101DB800000E236E000E226E12000600F2A4E7EF5A
:101DC8000EF0E9EF0EF058EF0FF0080ED624D66E9D
:101DD800000ED720D76E010E0001B827000EB923D8
:101DE800BA23BB23200EB81909E14E0EB919BA114E
:101DF800BB11D8A402EF0FF004EF0FF00FEF0FF0B4
:101E0800000EB86F000EB96F000EBA6F000EBB6FF0
:101E18005906D8A05A06010EB427000EB523B623DA
:101E2800B723200EB41909E14E0EB519B611B71132
:101E3800D8A421EF0FF023EF0FF02EEF0FF0000ED4
:101E4800B46F000EB56F000EB66F000EB76F800747
:101E5800D8A08107010EB027000EB123B223B32307
:101E6800100EB01909E1270EB119B211B311D8A497
:101E780040EF0FF042EF0FF057EF0FF02A502B1002
:101E8800D8B449EF0FF04CEF0FF0010E4DEF0FF003
:101E9800000E2A6E2B6A000EB06F000EB16F000E96
:101EA800B26F000EB36FF2945E921100000E376E9F
:101EB80035BE63EF0FF061EF0FF069EF0FF0346C90
:101EC800351ED8B0352A010E376E33BE70EF0FF0CD
:101ED8006EEF0FF076EF0FF0326C331ED8B0332A66
:101EE800010E371A000E396E000E386E3450351058
:101EF800D8B481EF0FF083EF0FF0ABEF0FF0010EC6
:101F0800366E8BEF0FF0D89034363536362A35AE2C
:101F180090EF0FF092EF0FF087EF0FF0D890383670
:101F280039363450325C35503358D8A09EEF0FF014
:101F3800A0EF0FF0A5EF0FF03450325E3550335A52
:101F48003880D89035323432362E92EF0FF0375031
:101F5800D8B4B1EF0FF0B3EF0FF0B7EF0FF0386C64
:101F6800391ED8B0392A38C032F039C033F01200DF
:101F7800000E3F6E3BBEC5EF0FF0C3EF0FF0CBEF87
:101F88000FF03A6C3B1ED8B03B2A010E3F6E3DBEA7
:101F9800D2EF0FF0D0EF0FF0D6EF0FF03C6C3D1EF4
:101FA800D8B03D2A3C503D10D8B4DDEF0FF0DFEF3C
:101FB8000FF003EF10F0010E3E6EE7EF0FF0D89030
:101FC8003C363D363E2A3DAEECEF0FF0EEEF0FF01B
:101FD800E3EF0FF03C503A5C3D503B58D8A0F7EF88
:101FE8000FF0F9EF0FF0FDEF0FF03C503A5E3D5067
:101FF8003B5AD8903D323C323E2EEEEF0FF03F5028
:10200800D8B409EF10F00BEF10F00FEF10F03A6CA6
:102018003B1ED8B03B2A3AC03AF03BC03BF0120016
:10202800000E956E9450F80B946E8290C30E346E29
:10203800CD0EE82EFED7342EFCD70000000E326EEF
:10204800330E35EC13F01B0E346E9E0EE82EFED7C1
:10205800342EFCD700D0000E326E330E35EC13F060
:10206800A60EE82EFED700D0000E326E330E35ECE9
:1020780013F000D000D00000000E326E020E35ECD6
:1020880013F0A60EE82EFED700D0000E326E380EE2
:1020980035EC13F0A60EE82EFED700D0000E326EF7
:1020A800010E35EC13F0040E346E3E0EE82EFED70A
:1020B800342EFCD7000E326E0C0E35EC13F0A60E43
:1020C800E82EFED700D01200020E67EC13F0056E62
:1020D800010E67EC13F0066E000E67EC13F0076E46
:1020E80005AC79EF10F07BEF10F087EF10F00538B2
:1020F8000F0B010B300F0001926F05500F0B300FC3
:10210800936F91EF10F005380F0B030B300F0001A0
:10211800926F05500F0B300F936F3A0E946F06387D
:102128000F0B0F0B300F956F06500F0B300F966F7C
:102138003A0E976F07380F0B0F0B300F986F075039
:102148000F0B300F996F000E9A6F1200000E3D6E44
:10215800000E3C6E3A503B10D8B4B5EF10F0B7EF14
:1021680010F0DFEF10F0010E3E6EBFEF10F0D890C8
:102178003A363B363E2A3BAEC4EF10F0C6EF10F0BD
:10218800BBEF10F0D8903C363D363A50385C3B50A7
:102198003958D8A0D2EF10F0D4EF10F0D9EF10F0E2
:1021A8003A50385E3B50395A3C80D8903B323A32EC
:1021B8003E2EC6EF10F03CC038F03DC039F012009A
:1021C800640EF66E250EF76E000EF86E00EE60F0E7
:1021D80010EE45F00900F5CFEEFFE550E150FAE1C9
:1021E800460EF66E280EF76E000EF86E00EE57F0EB
:1021F80010EE07F00900F5CFEEFFE550E150FAE1E7
:1022080001EEAEF00B0EEE6AE806FDE100EEA5F079
:10221800330EEE6AE806FDE100EE01F0310EEE6ADB
:10222800E806FDE15E905E92000EF86E000157EF41
:102238000DF0326E3250D8A424EF11F026EF11F0D1
:102248002AEF11F0DDEC0DF055EF11F03204D8A4AF
:1022580030EF11F032EF11F055EF11F0DDEC0DF029
:10226800336E3328D8B43BEF11F03DEF11F04AEF4D
:1022780011F05D50D8B443EF11F045EF11F04AEF7B
:1022880011F0000E5D6E335055EF11F03328D8A4CD
:1022980050EF11F052EF11F054EF11F0010E5D6E96
:1022A800FF0E1200000E326E365035EC13F073EF4D
:1022B80011F0010E326E34C0F6FF35C0F7FFF86A30
:1022C800050EF76403D00800F55005D0F6CFE9FFF6
:1022D800F7CFEAFFEF5035EC13F0344A352A34C013
:1022E800F6FF35C0F7FFF86A050EF76403D008005B
:1022F800F55005D0F6CFE9FFF7CFEAFFEF50000918
:10230800D8A489EF11F08BEF11F05DEF11F01200F6
:1023180034503510D8B493EF11F095EF11F0B9EFB0
:1023280011F0010E366E9DEF11F0D8903436353627
:10233800362A35AEA2EF11F0A4EF11F099EF11F0A3
:102348003450325C35503358D8A0ADEF11F0AFEFB0
:1023580011F0B3EF11F03450325E3550335AD89043
:1023680035323432362EA4EF11F032C032F033C099
:1023780033F01200D4EF11F038C0F6FF39C0F7FF80
:10238800F86A050EF76403D00800F55005D0F6CFBB
:10239800E9FFF7CFEAFFEF50E6EC13F0384A392AA5
:1023A80038C0F6FF39C0F7FFF86A050EF76403D0A6
:1023B8000800F55005D0F6CFE9FFF7CFEAFFEF5058
:1023C8000009D8A4EAEF11F0ECEF11F0C0EF11F01A
:1023D8001200F1EF11F0322A332A3350D96EDA6A3B
:1023E8003250E16EE26ADE50E618D8A4FEEF11F032
:1023F80000EF12F00BEF12F03250D96EDA6ADF50AC
:10240800D8A409EF12F00BEF12F0EFEF11F03250F1
:10241800D96EDA6ADF50346E3350D96EDA6ADF501B
:10242800356E3550345C326E336AD8A033061200EC
:10243800B70E346E2F0E356E800E366E56EC11F0D8
:10244800720E346E2F0E356EC00E366E56EC11F0CD
:10245800000E5C6E000E5B6E000E276E020E266E7E
:10246800270E386E0D0E376E260EE82EFED7372E45
:10247800FCD7382EFAD700D0000E326E010E35EC9C
:1024880013F01200356E1FEC14F0A00E09EC14F0D6
:10249800355009EC14F013EC14F0A10E09EC14F00B
:1024A80003EC14F0366E1BEC14F00B0E346EB80E01
:1024B800336E3306D8A03406332806E13428D8A46E
:1024C80068EF12F06AEF12F05DEF12F0365012006A
:1024D80014EC10F0B3EC13F00FEC14F0C2EC13F0A2
:1024E800DBEC13F08FEC12F0300E336E650E15EC4A
:1024F80013F0300E336E660E15EC13F0300E336E9B
:10250800670E15EC13F0300E336E680E15EC13F0F1
:1025180052EC13F01200000E67EC13F0356E3550D4
:102528008009336E000EA4EC13F0020E67EC13F072
:10253800356E35C033F0020EA4EC13F0930E336EF3
:10254800070EA4EC13F0000E67EC13F0356E35504F
:102558007F0B336E000EA4EC13F01200F62FF32F4E
:10256800FC2FE42FE72FEA2FED2FF02FF92FD32F91
:10257800CA2F7F2FB72F1C2F0100010004005449D8
:102588004D45202020202020455620535000303033
:102598003A30303A3030003030303000303030307F
:0125A8000032
:1025AA00000E3B6E000E3A6EAE0E3A24D96E010E44
:1025BA003B20DA6E38503A2446EC12F0DF6E3A4A83
:1025CA003B2A3BBEF2EF12F03B5009E10A0E3A5C9D
:1025DA00D8A0F2EF12F0F4EF12F0D9EF12F01200D5
:1025EA00376E37C034F0D8903436D8903436C2506B
:1025FA00C30B3410C26EC282C2B206EF13F008EFE8
:10260A0013F001EF13F0C4CF34F0030E3416345034
:10261A00366E356AC3503510326E3650336E12003C
:10262A00366E1FEC14F0A00E09EC14F0365009ECCB
:10263A0014F0335009EC14F01BEC14F00B0E356E49
:10264A00B80E346E3406D8A03506342806E135288B
:10265A00D8A432EF13F034EF13F027EF13F012007F
:10266A00336E32B03BEF13F03EEF13F082823FEF4E
:10267A0013F0829233C083FF82848294958E828083
:10268A0082928284829483BE4DEF13F04FEF13F04F
:10269A0046EF13F08290959E1200650E46EC12F0FA
:1026AA0000019B6F660E46EC12F000019C6F670EEC
:1026BA0046EC12F000019D6F680E46EC12F0000124
:1026CA009E6F1200336E1FEC14F0D00E09EC14F05A
:1026DA00335009EC14F013EC14F0D10E09EC14F099
:1026EA0003EC14F0346E1BEC14F03450120032C0B8
:1026FA0034F0332A3304D96EDA6A342A3404E16EA8
:10270A00E26ADFCFE7FFE750D8A48EEF13F090EF2D
:10271A0013F07EEF13F0120032503402F3CF36F08A
:10272A00F4CF37F032503502F350372633503402A3
:10273A00F350372636C032F037C033F01200346E09
:10274A001FEC14F0D00E09EC14F0345009EC14F01C
:10275A00335009EC14F01BEC14F01200C280C19A39
:10276A00C198C186C194C182C190C094C082C090F0
:10277A00C08EC08AC098C0961200F29EF28CF28A6D
:10278A00F294000ED76E060ED66ED58ED58CD59ADB
:10279A00D5861200416E000E326E405035EC13F0B1
:1027AA00010E326E415035EC13F012009486948873
:1027BA00280EC66E310EC86EC79CC78E9E96A1960D
:1027CA001200326E9EA8ECEF13F0EEEF13F0E7EF73
:1027DA0013F032C0ADFF1200948E949CAC84AB8E81
:1027EA00AB88810EAF6E9D8A12009EA6FFEF13F092
:1027FA0001EF14F0FAEF13F09E96120017EC14F0A2
:10280A0027EC14F0C9501200326E32C0C9FFFAEC3C
:10281A0013F012001E0E936EF19E1200C582FAEC9E
:10282A0013F01200C586FAEC13F01200C584FAEC14
:10283A0013F01200C580FAEC13F0120001007800C0
:03284A0001000189
:06284E00C58AC5881200D6
:102EC40000232054494D45202020202045562053DE
:102ED400500A0D00232054494D4520202020204530
:102EE40056205350005F456E746572207061737391
:102EF400776F72645F0070617373776F72645F756C
:102F040070646174656400636F6E6669726D2070CD
:102F1400617373776F7264004368616E67652050F4
:102F2400617373776F726400646F776E6C6F64693A
:102F34006E67202E2E2E0077726F6E67207061737D
:102F440073776F726400706173735F6D69736D6121
:102F540074636800415454454D5054204C454654C4
:102F6400006E65772070617373776F7264005375B8
:102F7400636365737366756C6C7900446F776E6C0C
:102F84006F6164204C6F670057616974202E2E2E88
:102F9400466F7200656E746572656420696E0045E3
:102FA4006D707479204C6F67004D61696E204D65BA
:102FB4006E7500436C656172204C6F670048483A37
:102FC4004D4D3A5353005365742054696D65005652
:102FD400696577206C6F67002E2E2E207365630061
:102FE4004731004732004733004734004735004734
:0C2FF4004E004F4E00434F0047520000BB
:020000040020DA
:08000000FFFFFFFFFFFFFFFF00
:020000040030CA
:0E000000FF071F1FFF8285FF0FC00FE00F409C
:00000001FF
